{
  "_format": "hh-sol-artifact-1",
  "contractName": "GenArtNFT",
  "sourceName": "contracts/GenArtNFT.sol",
  "abi": [
    {
      "inputs": [],
      "stateMutability": "nonpayable",
      "type": "constructor"
    },
    {
      "anonymous": false,
      "inputs": [
        {
          "indexed": true,
          "internalType": "address",
          "name": "owner",
          "type": "address"
        },
        {
          "indexed": true,
          "internalType": "address",
          "name": "approved",
          "type": "address"
        },
        {
          "indexed": true,
          "internalType": "uint256",
          "name": "tokenId",
          "type": "uint256"
        }
      ],
      "name": "Approval",
      "type": "event"
    },
    {
      "anonymous": false,
      "inputs": [
        {
          "indexed": true,
          "internalType": "address",
          "name": "owner",
          "type": "address"
        },
        {
          "indexed": true,
          "internalType": "address",
          "name": "operator",
          "type": "address"
        },
        {
          "indexed": false,
          "internalType": "bool",
          "name": "approved",
          "type": "bool"
        }
      ],
      "name": "ApprovalForAll",
      "type": "event"
    },
    {
      "anonymous": false,
      "inputs": [
        {
          "indexed": false,
          "internalType": "address",
          "name": "sender",
          "type": "address"
        },
        {
          "indexed": false,
          "internalType": "uint256",
          "name": "tokenId",
          "type": "uint256"
        }
      ],
      "name": "NewGenArtNFTMinted",
      "type": "event"
    },
    {
      "anonymous": false,
      "inputs": [
        {
          "indexed": true,
          "internalType": "address",
          "name": "from",
          "type": "address"
        },
        {
          "indexed": true,
          "internalType": "address",
          "name": "to",
          "type": "address"
        },
        {
          "indexed": true,
          "internalType": "uint256",
          "name": "tokenId",
          "type": "uint256"
        }
      ],
      "name": "Transfer",
      "type": "event"
    },
    {
      "inputs": [
        {
          "internalType": "address",
          "name": "to",
          "type": "address"
        },
        {
          "internalType": "uint256",
          "name": "tokenId",
          "type": "uint256"
        }
      ],
      "name": "approve",
      "outputs": [],
      "stateMutability": "nonpayable",
      "type": "function"
    },
    {
      "inputs": [
        {
          "internalType": "address",
          "name": "owner",
          "type": "address"
        }
      ],
      "name": "balanceOf",
      "outputs": [
        {
          "internalType": "uint256",
          "name": "",
          "type": "uint256"
        }
      ],
      "stateMutability": "view",
      "type": "function"
    },
    {
      "inputs": [
        {
          "internalType": "uint256",
          "name": "tokenId",
          "type": "uint256"
        }
      ],
      "name": "getApproved",
      "outputs": [
        {
          "internalType": "address",
          "name": "",
          "type": "address"
        }
      ],
      "stateMutability": "view",
      "type": "function"
    },
    {
      "inputs": [],
      "name": "getTotalNFTsMintedSoFar",
      "outputs": [
        {
          "internalType": "uint256",
          "name": "",
          "type": "uint256"
        }
      ],
      "stateMutability": "view",
      "type": "function"
    },
    {
      "inputs": [
        {
          "internalType": "address",
          "name": "owner",
          "type": "address"
        },
        {
          "internalType": "address",
          "name": "operator",
          "type": "address"
        }
      ],
      "name": "isApprovedForAll",
      "outputs": [
        {
          "internalType": "bool",
          "name": "",
          "type": "bool"
        }
      ],
      "stateMutability": "view",
      "type": "function"
    },
    {
      "inputs": [],
      "name": "makeGenArtNFT",
      "outputs": [],
      "stateMutability": "nonpayable",
      "type": "function"
    },
    {
      "inputs": [],
      "name": "name",
      "outputs": [
        {
          "internalType": "string",
          "name": "",
          "type": "string"
        }
      ],
      "stateMutability": "view",
      "type": "function"
    },
    {
      "inputs": [
        {
          "internalType": "uint256",
          "name": "tokenId",
          "type": "uint256"
        }
      ],
      "name": "ownerOf",
      "outputs": [
        {
          "internalType": "address",
          "name": "",
          "type": "address"
        }
      ],
      "stateMutability": "view",
      "type": "function"
    },
    {
      "inputs": [
        {
          "internalType": "uint256",
          "name": "tokenId",
          "type": "uint256"
        }
      ],
      "name": "pickRandomAdjective",
      "outputs": [
        {
          "internalType": "string",
          "name": "",
          "type": "string"
        }
      ],
      "stateMutability": "view",
      "type": "function"
    },
    {
      "inputs": [
        {
          "internalType": "uint256",
          "name": "tokenId",
          "type": "uint256"
        }
      ],
      "name": "pickRandomAnimal",
      "outputs": [
        {
          "internalType": "string",
          "name": "",
          "type": "string"
        }
      ],
      "stateMutability": "view",
      "type": "function"
    },
    {
      "inputs": [
        {
          "internalType": "uint256",
          "name": "tokenId",
          "type": "uint256"
        }
      ],
      "name": "pickRandomColour",
      "outputs": [
        {
          "internalType": "string",
          "name": "",
          "type": "string"
        }
      ],
      "stateMutability": "view",
      "type": "function"
    },
    {
      "inputs": [
        {
          "internalType": "address",
          "name": "from",
          "type": "address"
        },
        {
          "internalType": "address",
          "name": "to",
          "type": "address"
        },
        {
          "internalType": "uint256",
          "name": "tokenId",
          "type": "uint256"
        }
      ],
      "name": "safeTransferFrom",
      "outputs": [],
      "stateMutability": "nonpayable",
      "type": "function"
    },
    {
      "inputs": [
        {
          "internalType": "address",
          "name": "from",
          "type": "address"
        },
        {
          "internalType": "address",
          "name": "to",
          "type": "address"
        },
        {
          "internalType": "uint256",
          "name": "tokenId",
          "type": "uint256"
        },
        {
          "internalType": "bytes",
          "name": "_data",
          "type": "bytes"
        }
      ],
      "name": "safeTransferFrom",
      "outputs": [],
      "stateMutability": "nonpayable",
      "type": "function"
    },
    {
      "inputs": [
        {
          "internalType": "address",
          "name": "operator",
          "type": "address"
        },
        {
          "internalType": "bool",
          "name": "approved",
          "type": "bool"
        }
      ],
      "name": "setApprovalForAll",
      "outputs": [],
      "stateMutability": "nonpayable",
      "type": "function"
    },
    {
      "inputs": [
        {
          "internalType": "bytes4",
          "name": "interfaceId",
          "type": "bytes4"
        }
      ],
      "name": "supportsInterface",
      "outputs": [
        {
          "internalType": "bool",
          "name": "",
          "type": "bool"
        }
      ],
      "stateMutability": "view",
      "type": "function"
    },
    {
      "inputs": [],
      "name": "symbol",
      "outputs": [
        {
          "internalType": "string",
          "name": "",
          "type": "string"
        }
      ],
      "stateMutability": "view",
      "type": "function"
    },
    {
      "inputs": [
        {
          "internalType": "uint256",
          "name": "tokenId",
          "type": "uint256"
        }
      ],
      "name": "tokenURI",
      "outputs": [
        {
          "internalType": "string",
          "name": "",
          "type": "string"
        }
      ],
      "stateMutability": "view",
      "type": "function"
    },
    {
      "inputs": [
        {
          "internalType": "address",
          "name": "from",
          "type": "address"
        },
        {
          "internalType": "address",
          "name": "to",
          "type": "address"
        },
        {
          "internalType": "uint256",
          "name": "tokenId",
          "type": "uint256"
        }
      ],
      "name": "transferFrom",
      "outputs": [],
      "stateMutability": "nonpayable",
      "type": "function"
    }
  ],
  "bytecode": "0x608060405260405180610160016040528061012f815260200162004bef61012f9139600890805190602001906200003892919062001018565b5060326009556040518061028001604052806040518060400160405280600881526020017f41646f7261626c6500000000000000000000000000000000000000000000000081525081526020016040518060400160405280600881526020017f4172726f67616e7400000000000000000000000000000000000000000000000081525081526020016040518060400160405280600a81526020017f426577696c64657265640000000000000000000000000000000000000000000081525081526020016040518060400160405280600881526020017f436861726d696e6700000000000000000000000000000000000000000000000081525081526020016040518060400160405280600681526020017f437265657079000000000000000000000000000000000000000000000000000081525081526020016040518060400160405280600981526020017f446570726573736564000000000000000000000000000000000000000000000081525081526020016040518060400160405280600b81526020017f456d62617272617373656400000000000000000000000000000000000000000081525081526020016040518060400160405280600781526020017f457863697465640000000000000000000000000000000000000000000000000081525081526020016040518060400160405280600981526020017f46616e746173746963000000000000000000000000000000000000000000000081525081526020016040518060400160405280600a81526020017f467269676874656e65640000000000000000000000000000000000000000000081525081526020016040518060400160405280600881526020017f467269656e646c7900000000000000000000000000000000000000000000000081525081526020016040518060400160405280600881526020017f476c6f72696f757300000000000000000000000000000000000000000000000081525081526020016040518060400160405280600881526020017f48656c706c65737300000000000000000000000000000000000000000000000081525081526020016040518060400160405280600681526020017f4c6f6e656c79000000000000000000000000000000000000000000000000000081525081526020016040518060400160405280600881526020017f50726563696f757300000000000000000000000000000000000000000000000081525081526020016040518060400160405280600881526020017f506f77657266756c00000000000000000000000000000000000000000000000081525081526020016040518060400160405280600681526020017f536c65657079000000000000000000000000000000000000000000000000000081525081526020016040518060400160405280600681526020017f537475706964000000000000000000000000000000000000000000000000000081525081526020016040518060400160405280600881526020017f54616c656e74656400000000000000000000000000000000000000000000000081525081526020016040518060400160405280600981526020017f5669766163696f75730000000000000000000000000000000000000000000000815250815250600a906014620004f6929190620010a9565b506040518061028001604052806040518060400160405280600681526020017f56696f6c6574000000000000000000000000000000000000000000000000000081525081526020016040518060400160405280600681526020017f496e6469676f000000000000000000000000000000000000000000000000000081525081526020016040518060400160405280600481526020017f426c75650000000000000000000000000000000000000000000000000000000081525081526020016040518060400160405280600581526020017f477265656e00000000000000000000000000000000000000000000000000000081525081526020016040518060400160405280600681526020017f59656c6c6f77000000000000000000000000000000000000000000000000000081525081526020016040518060400160405280600681526020017f4f72616e6765000000000000000000000000000000000000000000000000000081525081526020016040518060400160405280600381526020017f526564000000000000000000000000000000000000000000000000000000000081525081526020016040518060400160405280600481526020017f4379616e0000000000000000000000000000000000000000000000000000000081525081526020016040518060400160405280600581526020017f426c61636b00000000000000000000000000000000000000000000000000000081525081526020016040518060400160405280600581526020017f576869746500000000000000000000000000000000000000000000000000000081525081526020016040518060400160405280600681526020017f507572706c65000000000000000000000000000000000000000000000000000081525081526020016040518060400160405280600481526020017f4d696e740000000000000000000000000000000000000000000000000000000081525081526020016040518060400160405280600481526020017f50696e6b0000000000000000000000000000000000000000000000000000000081525081526020016040518060400160405280600481526020017f4c696d650000000000000000000000000000000000000000000000000000000081525081526020016040518060400160405280600481526020017f477265790000000000000000000000000000000000000000000000000000000081525081526020016040518060400160405280600681526020017f476f6c64656e000000000000000000000000000000000000000000000000000081525081526020016040518060400160405280600681526020017f53696c766572000000000000000000000000000000000000000000000000000081525081526020016040518060400160405280600481526020017f5465616c0000000000000000000000000000000000000000000000000000000081525081526020016040518060400160405280600481526020017f417175610000000000000000000000000000000000000000000000000000000081525081526020016040518060400160405280600481526020017f4e61767900000000000000000000000000000000000000000000000000000000815250815250601e906014620009af929190620010a9565b506040518061028001604052806040518060400160405280600481526020017f4c696f6e0000000000000000000000000000000000000000000000000000000081525081526020016040518060400160405280600581526020017f546967657200000000000000000000000000000000000000000000000000000081525081526020016040518060400160405280600381526020017f436174000000000000000000000000000000000000000000000000000000000081525081526020016040518060400160405280600381526020017f446f67000000000000000000000000000000000000000000000000000000000081525081526020016040518060400160405280600581526020017f486f72736500000000000000000000000000000000000000000000000000000081525081526020016040518060400160405280600881526020017f456c657068616e7400000000000000000000000000000000000000000000000081525081526020016040518060400160405280600381526020017f506967000000000000000000000000000000000000000000000000000000000081525081526020016040518060400160405280600581526020017f50616e646100000000000000000000000000000000000000000000000000000081525081526020016040518060400160405280600581526020017f536c6f746800000000000000000000000000000000000000000000000000000081525081526020016040518060400160405280600681526020017f4d6f6e6b6579000000000000000000000000000000000000000000000000000081525081526020016040518060400160405280600381526020017f466f78000000000000000000000000000000000000000000000000000000000081525081526020016040518060400160405280600481526020017f476f61740000000000000000000000000000000000000000000000000000000081525081526020016040518060400160405280600581526020017f536865657000000000000000000000000000000000000000000000000000000081525081526020016040518060400160405280600581526020017f43616d656c00000000000000000000000000000000000000000000000000000081525081526020016040518060400160405280600781526020017f476972616666650000000000000000000000000000000000000000000000000081525081526020016040518060400160405280600481526020017f446565720000000000000000000000000000000000000000000000000000000081525081526020016040518060400160405280600881526020017f4b616e6761726f6f00000000000000000000000000000000000000000000000081525081526020016040518060400160405280600681526020017f526162626974000000000000000000000000000000000000000000000000000081525081526020016040518060400160405280600581526020017f5a6562726100000000000000000000000000000000000000000000000000000081525081526020016040518060400160405280600581526020017f4d6f757365000000000000000000000000000000000000000000000000000000815250815250603290601462000e68929190620010a9565b5034801562000e7657600080fd5b506040518060400160405280600981526020017f5371756172654e465400000000000000000000000000000000000000000000008152506040518060400160405280600681526020017f5351554152450000000000000000000000000000000000000000000000000000815250816000908051906020019062000efb92919062001018565b50806001908051906020019062000f1492919062001018565b50505062000f4660405180606001604052806039815260200162004d1e6039913962000f4c60201b620012811760201c565b620012bd565b62000fec8160405160240162000f639190620011d1565b6040516020818303038152906040527f41304fac000000000000000000000000000000000000000000000000000000007bffffffffffffffffffffffffffffffffffffffffffffffffffffffff19166020820180517bffffffffffffffffffffffffffffffffffffffffffffffffffffffff838183161783525050505062000fef60201b60201c565b50565b60008151905060006a636f6e736f6c652e6c6f679050602083016000808483855afa5050505050565b828054620010269062001247565b90600052602060002090601f0160209004810192826200104a576000855562001096565b82601f106200106557805160ff191683800117855562001096565b8280016001018555821562001096579182015b828111156200109557825182559160200191906001019062001078565b5b509050620010a5919062001103565b5090565b8260148101928215620010f0579160200282015b82811115620010ef578251829080519060200190620010de92919062001018565b5091602001919060010190620010bd565b5b509050620010ff919062001122565b5090565b5b808211156200111e57600081600090555060010162001104565b5090565b5b808211156200114657600081816200113c91906200114a565b5060010162001123565b5090565b508054620011589062001247565b6000825580601f106200116c57506200118d565b601f0160209004906000526020600020908101906200118c919062001103565b5b50565b60006200119d82620011f5565b620011a9818562001200565b9350620011bb81856020860162001211565b620011c681620012ac565b840191505092915050565b60006020820190508181036000830152620011ed818462001190565b905092915050565b600081519050919050565b600082825260208201905092915050565b60005b838110156200123157808201518184015260208101905062001214565b8381111562001241576000848401525b50505050565b600060028204905060018216806200126057607f821691505b602082108114156200127757620012766200127d565b5b50919050565b7f4e487b7100000000000000000000000000000000000000000000000000000000600052602260045260246000fd5b6000601f19601f8301169050919050565b61392280620012cd6000396000f3fe608060405234801561001057600080fd5b50600436106101165760003560e01c806390b137bc116100a2578063a7bf712411610071578063a7bf7124146102df578063b88d4fde1461030f578063c87b56dd1461032b578063e985e9c51461035b578063eb9edb7d1461038b57610116565b806390b137bc1461026b57806395d89b4114610275578063a22cb46514610293578063a6721952146102af57610116565b8063095ea7b3116100e9578063095ea7b3146101b757806323b872dd146101d357806342842e0e146101ef5780636352211e1461020b57806370a082311461023b57610116565b806301ffc9a71461011b578063060475901461014b57806306fdde0314610169578063081812fc14610187575b600080fd5b61013560048036038101906101309190612514565b6103bb565b6040516101429190613176565b60405180910390f35b61015361049d565b6040516101609190613411565b60405180910390f35b6101716104ae565b60405161017e9190613191565b60405180910390f35b6101a1600480360381019061019c9190612566565b610540565b6040516101ae91906130e6565b60405180910390f35b6101d160048036038101906101cc91906124d8565b6105c5565b005b6101ed60048036038101906101e891906123d2565b6106dd565b005b610209600480360381019061020491906123d2565b61073d565b005b61022560048036038101906102209190612566565b61075d565b60405161023291906130e6565b60405180910390f35b6102556004803603810190610250919061236d565b61080f565b6040516102629190613411565b60405180910390f35b6102736108c7565b005b61027d610af3565b60405161028a9190613191565b60405180910390f35b6102ad60048036038101906102a8919061249c565b610b85565b005b6102c960048036038101906102c49190612566565b610d06565b6040516102d69190613191565b60405180910390f35b6102f960048036038101906102f49190612566565b610e17565b6040516103069190613191565b60405180910390f35b61032960048036038101906103249190612421565b610f28565b005b61034560048036038101906103409190612566565b610f8a565b6040516103529190613191565b60405180910390f35b61037560048036038101906103709190612396565b6110dc565b6040516103829190613176565b60405180910390f35b6103a560048036038101906103a09190612566565b611170565b6040516103b29190613191565b60405180910390f35b60007f80ac58cd000000000000000000000000000000000000000000000000000000007bffffffffffffffffffffffffffffffffffffffffffffffffffffffff1916827bffffffffffffffffffffffffffffffffffffffffffffffffffffffff1916148061048657507f5b5e139f000000000000000000000000000000000000000000000000000000007bffffffffffffffffffffffffffffffffffffffffffffffffffffffff1916827bffffffffffffffffffffffffffffffffffffffffffffffffffffffff1916145b8061049657506104958261131a565b5b9050919050565b60006104a96007611384565b905090565b6060600080546104bd906136b0565b80601f01602080910402602001604051908101604052809291908181526020018280546104e9906136b0565b80156105365780601f1061050b57610100808354040283529160200191610536565b820191906000526020600020905b81548152906001019060200180831161051957829003601f168201915b5050505050905090565b600061054b82611392565b61058a576040517f08c379a000000000000000000000000000000000000000000000000000000000815260040161058190613371565b60405180910390fd5b6004600083815260200190815260200160002060009054906101000a900473ffffffffffffffffffffffffffffffffffffffff169050919050565b60006105d08261075d565b90508073ffffffffffffffffffffffffffffffffffffffff168373ffffffffffffffffffffffffffffffffffffffff161415610641576040517f08c379a0000000000000000000000000000000000000000000000000000000008152600401610638906133d1565b60405180910390fd5b8073ffffffffffffffffffffffffffffffffffffffff166106606113fe565b73ffffffffffffffffffffffffffffffffffffffff16148061068f575061068e816106896113fe565b6110dc565b5b6106ce576040517f08c379a00000000000000000000000000000000000000000000000000000000081526004016106c590613291565b60405180910390fd5b6106d88383611406565b505050565b6106ee6106e86113fe565b826114bf565b61072d576040517f08c379a0000000000000000000000000000000000000000000000000000000008152600401610724906133f1565b60405180910390fd5b61073883838361159d565b505050565b61075883838360405180602001604052806000815250610f28565b505050565b6000806002600084815260200190815260200160002060009054906101000a900473ffffffffffffffffffffffffffffffffffffffff169050600073ffffffffffffffffffffffffffffffffffffffff168173ffffffffffffffffffffffffffffffffffffffff161415610806576040517f08c379a00000000000000000000000000000000000000000000000000000000081526004016107fd906132d1565b60405180910390fd5b80915050919050565b60008073ffffffffffffffffffffffffffffffffffffffff168273ffffffffffffffffffffffffffffffffffffffff161415610880576040517f08c379a0000000000000000000000000000000000000000000000000000000008152600401610877906132b1565b60405180910390fd5b600360008373ffffffffffffffffffffffffffffffffffffffff1673ffffffffffffffffffffffffffffffffffffffff168152602001908152602001600020549050919050565b60006108d36007611384565b905060095481111561091a576040517f08c379a000000000000000000000000000000000000000000000000000000000815260040161091190613331565b60405180910390fd5b600061092582610e17565b9050600061093283611170565b9050600061093f84610d06565b9050600083838360405160200161095893929190612fb9565b6040516020818303038152906040529050600060088260405160200161097f929190612fea565b604051602081830303815290604052905060006109c48361099f846117f9565b6040516020016109b092919061307f565b6040516020818303038152906040526117f9565b90506000816040516020016109d991906130c4565b6040516020818303038152906040529050610a286040518060400160405280601581526020017f0a2d2d2d2d2d2d2d2d2d2d2d2d2d2d2d2d2d2d2d2d0000000000000000000000815250611281565b610a3181611281565b610a6f6040518060400160405280601581526020017f2d2d2d2d2d2d2d2d2d2d2d2d2d2d2d2d2d2d2d2d0a0000000000000000000000815250611281565b610a7933896119b7565b610a8388826119d5565b610a8d6007611a49565b610ab06040518060600160405280602781526020016138c6602791398933611a5f565b7fb2efa928813bce38bf51f2b46f7ca50a513fd1184190ac95a6bd3dd08640c10b3389604051610ae192919061314d565b60405180910390a15050505050505050565b606060018054610b02906136b0565b80601f0160208091040260200160405190810160405280929190818152602001828054610b2e906136b0565b8015610b7b5780601f10610b5057610100808354040283529160200191610b7b565b820191906000526020600020905b815481529060010190602001808311610b5e57829003601f168201915b5050505050905090565b610b8d6113fe565b73ffffffffffffffffffffffffffffffffffffffff168273ffffffffffffffffffffffffffffffffffffffff161415610bfb576040517f08c379a0000000000000000000000000000000000000000000000000000000008152600401610bf290613251565b60405180910390fd5b8060056000610c086113fe565b73ffffffffffffffffffffffffffffffffffffffff1673ffffffffffffffffffffffffffffffffffffffff16815260200190815260200160002060008473ffffffffffffffffffffffffffffffffffffffff1673ffffffffffffffffffffffffffffffffffffffff16815260200190815260200160002060006101000a81548160ff0219169083151502179055508173ffffffffffffffffffffffffffffffffffffffff16610cb56113fe565b73ffffffffffffffffffffffffffffffffffffffff167f17307eab39ab6107e8899845ad3d59bd9653f200f220920489ca2b5937696c3183604051610cfa9190613176565b60405180910390a35050565b60606000610d3a610d1684611afe565b604051602001610d26919061305d565b604051602081830303815290604052611cab565b9050601481610d49919061372b565b905060328160148110610d85577f4e487b7100000000000000000000000000000000000000000000000000000000600052603260045260246000fd5b018054610d91906136b0565b80601f0160208091040260200160405190810160405280929190818152602001828054610dbd906136b0565b8015610e0a5780601f10610ddf57610100808354040283529160200191610e0a565b820191906000526020600020905b815481529060010190602001808311610ded57829003601f168201915b5050505050915050919050565b60606000610e4b610e2784611afe565b604051602001610e379190613019565b604051602081830303815290604052611cab565b9050601481610e5a919061372b565b9050600a8160148110610e96577f4e487b7100000000000000000000000000000000000000000000000000000000600052603260045260246000fd5b018054610ea2906136b0565b80601f0160208091040260200160405190810160405280929190818152602001828054610ece906136b0565b8015610f1b5780601f10610ef057610100808354040283529160200191610f1b565b820191906000526020600020905b815481529060010190602001808311610efe57829003601f168201915b5050505050915050919050565b610f39610f336113fe565b836114bf565b610f78576040517f08c379a0000000000000000000000000000000000000000000000000000000008152600401610f6f906133f1565b60405180910390fd5b610f8484848484611cde565b50505050565b6060610f9582611392565b610fd4576040517f08c379a0000000000000000000000000000000000000000000000000000000008152600401610fcb90613351565b60405180910390fd5b6000600660008481526020019081526020016000208054610ff4906136b0565b80601f0160208091040260200160405190810160405280929190818152602001828054611020906136b0565b801561106d5780601f106110425761010080835404028352916020019161106d565b820191906000526020600020905b81548152906001019060200180831161105057829003601f168201915b50505050509050600061107e611d3a565b90506000815114156110945781925050506110d7565b6000825111156110c95780826040516020016110b1929190612f95565b604051602081830303815290604052925050506110d7565b6110d284611d51565b925050505b919050565b6000600560008473ffffffffffffffffffffffffffffffffffffffff1673ffffffffffffffffffffffffffffffffffffffff16815260200190815260200160002060008373ffffffffffffffffffffffffffffffffffffffff1673ffffffffffffffffffffffffffffffffffffffff16815260200190815260200160002060009054906101000a900460ff16905092915050565b606060006111a461118084611afe565b604051602001611190919061303b565b604051602081830303815290604052611cab565b90506014816111b3919061372b565b9050601e81601481106111ef577f4e487b7100000000000000000000000000000000000000000000000000000000600052603260045260246000fd5b0180546111fb906136b0565b80601f0160208091040260200160405190810160405280929190818152602001828054611227906136b0565b80156112745780601f1061124957610100808354040283529160200191611274565b820191906000526020600020905b81548152906001019060200180831161125757829003601f168201915b5050505050915050919050565b611317816040516024016112959190613191565b6040516020818303038152906040527f41304fac000000000000000000000000000000000000000000000000000000007bffffffffffffffffffffffffffffffffffffffffffffffffffffffff19166020820180517bffffffffffffffffffffffffffffffffffffffffffffffffffffffff8381831617835250505050611df8565b50565b60007f01ffc9a7000000000000000000000000000000000000000000000000000000007bffffffffffffffffffffffffffffffffffffffffffffffffffffffff1916827bffffffffffffffffffffffffffffffffffffffffffffffffffffffff1916149050919050565b600081600001549050919050565b60008073ffffffffffffffffffffffffffffffffffffffff166002600084815260200190815260200160002060009054906101000a900473ffffffffffffffffffffffffffffffffffffffff1673ffffffffffffffffffffffffffffffffffffffff1614159050919050565b600033905090565b816004600083815260200190815260200160002060006101000a81548173ffffffffffffffffffffffffffffffffffffffff021916908373ffffffffffffffffffffffffffffffffffffffff160217905550808273ffffffffffffffffffffffffffffffffffffffff166114798361075d565b73ffffffffffffffffffffffffffffffffffffffff167f8c5be1e5ebec7d5bd14f71427d1e84f3dd0314c0f7b2291e5b200ac8c7c3b92560405160405180910390a45050565b60006114ca82611392565b611509576040517f08c379a000000000000000000000000000000000000000000000000000000000815260040161150090613271565b60405180910390fd5b60006115148361075d565b90508073ffffffffffffffffffffffffffffffffffffffff168473ffffffffffffffffffffffffffffffffffffffff16148061158357508373ffffffffffffffffffffffffffffffffffffffff1661156b84610540565b73ffffffffffffffffffffffffffffffffffffffff16145b80611594575061159381856110dc565b5b91505092915050565b8273ffffffffffffffffffffffffffffffffffffffff166115bd8261075d565b73ffffffffffffffffffffffffffffffffffffffff1614611613576040517f08c379a000000000000000000000000000000000000000000000000000000000815260040161160a90613391565b60405180910390fd5b600073ffffffffffffffffffffffffffffffffffffffff168273ffffffffffffffffffffffffffffffffffffffff161415611683576040517f08c379a000000000000000000000000000000000000000000000000000000000815260040161167a90613231565b60405180910390fd5b61168e838383611e21565b611699600082611406565b6001600360008573ffffffffffffffffffffffffffffffffffffffff1673ffffffffffffffffffffffffffffffffffffffff16815260200190815260200160002060008282546116e991906135c6565b925050819055506001600360008473ffffffffffffffffffffffffffffffffffffffff1673ffffffffffffffffffffffffffffffffffffffff168152602001908152602001600020600082825461174091906134e5565b92505081905550816002600083815260200190815260200160002060006101000a81548173ffffffffffffffffffffffffffffffffffffffff021916908373ffffffffffffffffffffffffffffffffffffffff160217905550808273ffffffffffffffffffffffffffffffffffffffff168473ffffffffffffffffffffffffffffffffffffffff167fddf252ad1be2c89b69c2b068fc378daa952ba7f163c4a11628f55a4df523b3ef60405160405180910390a4505050565b6060600082519050600081141561182257604051806020016040528060008152509150506119b2565b6000600360028361183391906134e5565b61183d919061353b565b6004611849919061356c565b9050600060208261185a91906134e5565b67ffffffffffffffff811115611899577f4e487b7100000000000000000000000000000000000000000000000000000000600052604160045260246000fd5b6040519080825280601f01601f1916602001820160405280156118cb5781602001600182028036833780820191505090505b5090506000604051806060016040528060408152602001613886604091399050600181016020830160005b8681101561196f5760038101905062ffffff818a015116603f8160121c168401518060081b905060ff603f83600c1c1686015116810190508060081b905060ff603f8360061c1686015116810190508060081b905060ff603f831686015116810190508060e01b905080845260048401935050506118f6565b5060038606600181146119895760028114611999576119a4565b613d3d60f01b60028303526119a4565b603d60f81b60018303525b508484525050819450505050505b919050565b6119d1828260405180602001604052806000815250611e26565b5050565b6119de82611392565b611a1d576040517f08c379a0000000000000000000000000000000000000000000000000000000008152600401611a14906132f1565b60405180910390fd5b80600660008481526020019081526020016000209080519060200190611a449291906121f9565b505050565b6001816000016000828254019250508190555050565b611af9838383604051602401611a77939291906131b3565b6040516020818303038152906040527fe3849f79000000000000000000000000000000000000000000000000000000007bffffffffffffffffffffffffffffffffffffffffffffffffffffffff19166020820180517bffffffffffffffffffffffffffffffffffffffffffffffffffffffff8381831617835250505050611df8565b505050565b60606000821415611b46576040518060400160405280600181526020017f30000000000000000000000000000000000000000000000000000000000000008152509050611ca6565b600082905060005b60008214611b78578080611b61906136e2565b915050600a82611b71919061353b565b9150611b4e565b60008167ffffffffffffffff811115611bba577f4e487b7100000000000000000000000000000000000000000000000000000000600052604160045260246000fd5b6040519080825280601f01601f191660200182016040528015611bec5781602001600182028036833780820191505090505b5090505b60008514611c9f57600182611c0591906135c6565b9150600a85611c14919061372b565b6030611c2091906134e5565b60f81b818381518110611c5c577f4e487b7100000000000000000000000000000000000000000000000000000000600052603260045260246000fd5b60200101907effffffffffffffffffffffffffffffffffffffffffffffffffffffffffffff1916908160001a905350600a85611c98919061353b565b9450611bf0565b8093505050505b919050565b600081604051602001611cbe9190612f7e565b6040516020818303038152906040528051906020012060001c9050919050565b611ce984848461159d565b611cf584848484611e81565b611d34576040517f08c379a0000000000000000000000000000000000000000000000000000000008152600401611d2b906131f1565b60405180910390fd5b50505050565b606060405180602001604052806000815250905090565b6060611d5c82611392565b611d9b576040517f08c379a0000000000000000000000000000000000000000000000000000000008152600401611d92906133b1565b60405180910390fd5b6000611da5611d3a565b90506000815111611dc55760405180602001604052806000815250611df0565b80611dcf84611afe565b604051602001611de0929190612f95565b6040516020818303038152906040525b915050919050565b60008151905060006a636f6e736f6c652e6c6f679050602083016000808483855afa5050505050565b505050565b611e308383612018565b611e3d6000848484611e81565b611e7c576040517f08c379a0000000000000000000000000000000000000000000000000000000008152600401611e73906131f1565b60405180910390fd5b505050565b6000611ea28473ffffffffffffffffffffffffffffffffffffffff166121e6565b1561200b578373ffffffffffffffffffffffffffffffffffffffff1663150b7a02611ecb6113fe565b8786866040518563ffffffff1660e01b8152600401611eed9493929190613101565b602060405180830381600087803b158015611f0757600080fd5b505af1925050508015611f3857506040513d601f19601f82011682018060405250810190611f35919061253d565b60015b611fbb573d8060008114611f68576040519150601f19603f3d011682016040523d82523d6000602084013e611f6d565b606091505b50600081511415611fb3576040517f08c379a0000000000000000000000000000000000000000000000000000000008152600401611faa906131f1565b60405180910390fd5b805181602001fd5b63150b7a0260e01b7bffffffffffffffffffffffffffffffffffffffffffffffffffffffff1916817bffffffffffffffffffffffffffffffffffffffffffffffffffffffff191614915050612010565b600190505b949350505050565b600073ffffffffffffffffffffffffffffffffffffffff168273ffffffffffffffffffffffffffffffffffffffff161415612088576040517f08c379a000000000000000000000000000000000000000000000000000000000815260040161207f90613311565b60405180910390fd5b61209181611392565b156120d1576040517f08c379a00000000000000000000000000000000000000000000000000000000081526004016120c890613211565b60405180910390fd5b6120dd60008383611e21565b6001600360008473ffffffffffffffffffffffffffffffffffffffff1673ffffffffffffffffffffffffffffffffffffffff168152602001908152602001600020600082825461212d91906134e5565b92505081905550816002600083815260200190815260200160002060006101000a81548173ffffffffffffffffffffffffffffffffffffffff021916908373ffffffffffffffffffffffffffffffffffffffff160217905550808273ffffffffffffffffffffffffffffffffffffffff16600073ffffffffffffffffffffffffffffffffffffffff167fddf252ad1be2c89b69c2b068fc378daa952ba7f163c4a11628f55a4df523b3ef60405160405180910390a45050565b600080823b905060008111915050919050565b828054612205906136b0565b90600052602060002090601f016020900481019282612227576000855561226e565b82601f1061224057805160ff191683800117855561226e565b8280016001018555821561226e579182015b8281111561226d578251825591602001919060010190612252565b5b50905061227b919061227f565b5090565b5b80821115612298576000816000905550600101612280565b5090565b60006122af6122aa8461345d565b61342c565b9050828152602081018484840111156122c757600080fd5b6122d284828561366e565b509392505050565b6000813590506122e981613829565b92915050565b6000813590506122fe81613840565b92915050565b60008135905061231381613857565b92915050565b60008151905061232881613857565b92915050565b600082601f83011261233f57600080fd5b813561234f84826020860161229c565b91505092915050565b6000813590506123678161386e565b92915050565b60006020828403121561237f57600080fd5b600061238d848285016122da565b91505092915050565b600080604083850312156123a957600080fd5b60006123b7858286016122da565b92505060206123c8858286016122da565b9150509250929050565b6000806000606084860312156123e757600080fd5b60006123f5868287016122da565b9350506020612406868287016122da565b925050604061241786828701612358565b9150509250925092565b6000806000806080858703121561243757600080fd5b6000612445878288016122da565b9450506020612456878288016122da565b935050604061246787828801612358565b925050606085013567ffffffffffffffff81111561248457600080fd5b6124908782880161232e565b91505092959194509250565b600080604083850312156124af57600080fd5b60006124bd858286016122da565b92505060206124ce858286016122ef565b9150509250929050565b600080604083850312156124eb57600080fd5b60006124f9858286016122da565b925050602061250a85828601612358565b9150509250929050565b60006020828403121561252657600080fd5b600061253484828501612304565b91505092915050565b60006020828403121561254f57600080fd5b600061255d84828501612319565b91505092915050565b60006020828403121561257857600080fd5b600061258684828501612358565b91505092915050565b612598816135fa565b82525050565b6125a78161360c565b82525050565b60006125b8826134a2565b6125c281856134b8565b93506125d281856020860161367d565b6125db81613818565b840191505092915050565b60006125f1826134ad565b6125fb81856134c9565b935061260b81856020860161367d565b61261481613818565b840191505092915050565b600061262a826134ad565b61263481856134da565b935061264481856020860161367d565b80840191505092915050565b6000815461265d816136b0565b61266781866134da565b945060018216600081146126825760018114612693576126c6565b60ff198316865281860193506126c6565b61269c8561348d565b60005b838110156126be5781548189015260018201915060208101905061269f565b838801955050505b50505092915050565b60006126dc6009836134da565b91507f41646a65637469766500000000000000000000000000000000000000000000006000830152600982019050919050565b600061271c6006836134da565b91507f436f6c6f757200000000000000000000000000000000000000000000000000006000830152600682019050919050565b600061275c6032836134c9565b91507f4552433732313a207472616e7366657220746f206e6f6e20455243373231526560008301527f63656976657220696d706c656d656e74657200000000000000000000000000006020830152604082019050919050565b60006127c2601c836134c9565b91507f4552433732313a20746f6b656e20616c7265616479206d696e746564000000006000830152602082019050919050565b60006128026024836134c9565b91507f4552433732313a207472616e7366657220746f20746865207a65726f2061646460008301527f72657373000000000000000000000000000000000000000000000000000000006020830152604082019050919050565b60006128686006836134da565b91507f416e696d616c00000000000000000000000000000000000000000000000000006000830152600682019050919050565b60006128a86019836134c9565b91507f4552433732313a20617070726f766520746f2063616c6c6572000000000000006000830152602082019050919050565b60006128e86063836134da565b91507f222c20226465736372697074696f6e223a20224120686967686c79206163636c60008301527f61696d656420636f6c6c656374696f6e206f6620737175617265732e222c202260208301527f696d616765223a2022646174613a696d6167652f7376672b786d6c3b6261736560408301527f36342c00000000000000000000000000000000000000000000000000000000006060830152606382019050919050565b600061299a602c836134c9565b91507f4552433732313a206f70657261746f7220717565727920666f72206e6f6e657860008301527f697374656e7420746f6b656e00000000000000000000000000000000000000006020830152604082019050919050565b6000612a00600d836134da565b91507f3c2f746578743e3c2f7376673e000000000000000000000000000000000000006000830152600d82019050919050565b6000612a406038836134c9565b91507f4552433732313a20617070726f76652063616c6c6572206973206e6f74206f7760008301527f6e6572206e6f7220617070726f76656420666f7220616c6c00000000000000006020830152604082019050919050565b6000612aa6602a836134c9565b91507f4552433732313a2062616c616e636520717565727920666f7220746865207a6560008301527f726f2061646472657373000000000000000000000000000000000000000000006020830152604082019050919050565b6000612b0c6029836134c9565b91507f4552433732313a206f776e657220717565727920666f72206e6f6e657869737460008301527f656e7420746f6b656e00000000000000000000000000000000000000000000006020830152604082019050919050565b6000612b72602e836134c9565b91507f45524337323155524953746f726167653a2055524920736574206f66206e6f6e60008301527f6578697374656e7420746f6b656e0000000000000000000000000000000000006020830152604082019050919050565b6000612bd86002836134da565b91507f227d0000000000000000000000000000000000000000000000000000000000006000830152600282019050919050565b6000612c186020836134c9565b91507f4552433732313a206d696e7420746f20746865207a65726f20616464726573736000830152602082019050919050565b6000612c586019836134c9565b91507f416c6c204e4654732068617665206265656e206d696e746564000000000000006000830152602082019050919050565b6000612c986031836134c9565b91507f45524337323155524953746f726167653a2055524920717565727920666f722060008301527f6e6f6e6578697374656e7420746f6b656e0000000000000000000000000000006020830152604082019050919050565b6000612cfe602c836134c9565b91507f4552433732313a20617070726f76656420717565727920666f72206e6f6e657860008301527f697374656e7420746f6b656e00000000000000000000000000000000000000006020830152604082019050919050565b6000612d646029836134c9565b91507f4552433732313a207472616e73666572206f6620746f6b656e2074686174206960008301527f73206e6f74206f776e00000000000000000000000000000000000000000000006020830152604082019050919050565b6000612dca602f836134c9565b91507f4552433732314d657461646174613a2055524920717565727920666f72206e6f60008301527f6e6578697374656e7420746f6b656e00000000000000000000000000000000006020830152604082019050919050565b6000612e30600a836134da565b91507f7b226e616d65223a2022000000000000000000000000000000000000000000006000830152600a82019050919050565b6000612e706021836134c9565b91507f4552433732313a20617070726f76616c20746f2063757272656e74206f776e6560008301527f72000000000000000000000000000000000000000000000000000000000000006020830152604082019050919050565b6000612ed6601d836134da565b91507f646174613a6170706c69636174696f6e2f6a736f6e3b6261736536342c0000006000830152601d82019050919050565b6000612f166031836134c9565b91507f4552433732313a207472616e736665722063616c6c6572206973206e6f74206f60008301527f776e6572206e6f7220617070726f7665640000000000000000000000000000006020830152604082019050919050565b612f7881613664565b82525050565b6000612f8a828461261f565b915081905092915050565b6000612fa1828561261f565b9150612fad828461261f565b91508190509392505050565b6000612fc5828661261f565b9150612fd1828561261f565b9150612fdd828461261f565b9150819050949350505050565b6000612ff68285612650565b9150613002828461261f565b915061300d826129f3565b91508190509392505050565b6000613024826126cf565b9150613030828461261f565b915081905092915050565b60006130468261270f565b9150613052828461261f565b915081905092915050565b60006130688261285b565b9150613074828461261f565b915081905092915050565b600061308a82612e23565b9150613096828561261f565b91506130a1826128db565b91506130ad828461261f565b91506130b882612bcb565b91508190509392505050565b60006130cf82612ec9565b91506130db828461261f565b915081905092915050565b60006020820190506130fb600083018461258f565b92915050565b6000608082019050613116600083018761258f565b613123602083018661258f565b6131306040830185612f6f565b818103606083015261314281846125ad565b905095945050505050565b6000604082019050613162600083018561258f565b61316f6020830184612f6f565b9392505050565b600060208201905061318b600083018461259e565b92915050565b600060208201905081810360008301526131ab81846125e6565b905092915050565b600060608201905081810360008301526131cd81866125e6565b90506131dc6020830185612f6f565b6131e9604083018461258f565b949350505050565b6000602082019050818103600083015261320a8161274f565b9050919050565b6000602082019050818103600083015261322a816127b5565b9050919050565b6000602082019050818103600083015261324a816127f5565b9050919050565b6000602082019050818103600083015261326a8161289b565b9050919050565b6000602082019050818103600083015261328a8161298d565b9050919050565b600060208201905081810360008301526132aa81612a33565b9050919050565b600060208201905081810360008301526132ca81612a99565b9050919050565b600060208201905081810360008301526132ea81612aff565b9050919050565b6000602082019050818103600083015261330a81612b65565b9050919050565b6000602082019050818103600083015261332a81612c0b565b9050919050565b6000602082019050818103600083015261334a81612c4b565b9050919050565b6000602082019050818103600083015261336a81612c8b565b9050919050565b6000602082019050818103600083015261338a81612cf1565b9050919050565b600060208201905081810360008301526133aa81612d57565b9050919050565b600060208201905081810360008301526133ca81612dbd565b9050919050565b600060208201905081810360008301526133ea81612e63565b9050919050565b6000602082019050818103600083015261340a81612f09565b9050919050565b60006020820190506134266000830184612f6f565b92915050565b6000604051905081810181811067ffffffffffffffff82111715613453576134526137e9565b5b8060405250919050565b600067ffffffffffffffff821115613478576134776137e9565b5b601f19601f8301169050602081019050919050565b60008190508160005260206000209050919050565b600081519050919050565b600081519050919050565b600082825260208201905092915050565b600082825260208201905092915050565b600081905092915050565b60006134f082613664565b91506134fb83613664565b9250827fffffffffffffffffffffffffffffffffffffffffffffffffffffffffffffffff038211156135305761352f61375c565b5b828201905092915050565b600061354682613664565b915061355183613664565b9250826135615761356061378b565b5b828204905092915050565b600061357782613664565b915061358283613664565b9250817fffffffffffffffffffffffffffffffffffffffffffffffffffffffffffffffff04831182151516156135bb576135ba61375c565b5b828202905092915050565b60006135d182613664565b91506135dc83613664565b9250828210156135ef576135ee61375c565b5b828203905092915050565b600061360582613644565b9050919050565b60008115159050919050565b60007fffffffff0000000000000000000000000000000000000000000000000000000082169050919050565b600073ffffffffffffffffffffffffffffffffffffffff82169050919050565b6000819050919050565b82818337600083830152505050565b60005b8381101561369b578082015181840152602081019050613680565b838111156136aa576000848401525b50505050565b600060028204905060018216806136c857607f821691505b602082108114156136dc576136db6137ba565b5b50919050565b60006136ed82613664565b91507fffffffffffffffffffffffffffffffffffffffffffffffffffffffffffffffff8214156137205761371f61375c565b5b600182019050919050565b600061373682613664565b915061374183613664565b9250826137515761375061378b565b5b828206905092915050565b7f4e487b7100000000000000000000000000000000000000000000000000000000600052601160045260246000fd5b7f4e487b7100000000000000000000000000000000000000000000000000000000600052601260045260246000fd5b7f4e487b7100000000000000000000000000000000000000000000000000000000600052602260045260246000fd5b7f4e487b7100000000000000000000000000000000000000000000000000000000600052604160045260246000fd5b6000601f19601f8301169050919050565b613832816135fa565b811461383d57600080fd5b50565b6138498161360c565b811461385457600080fd5b50565b61386081613618565b811461386b57600080fd5b50565b61387781613664565b811461388257600080fd5b5056fe4142434445464748494a4b4c4d4e4f505152535455565758595a6162636465666768696a6b6c6d6e6f707172737475767778797a303132333435363738392b2f416e204e4654207769746820494420257320686173206265656e206d696e74656420746f202573a2646970667358221220f2177dfaf56b71f01e9fda3f05703566d327c81bed8ec070386d3a05c1896f0964736f6c634300080000333c73766720786d6c6e733d27687474703a2f2f7777772e77332e6f72672f323030302f73766727207072657365727665417370656374526174696f3d27784d696e594d696e206d656574272076696577426f783d273020302033353020333530273e3c7374796c653e2e62617365207b2066696c6c3a2077686974653b20666f6e742d66616d696c793a2073657269663b20666f6e742d73697a653a20323470783b207d3c2f7374796c653e3c726563742077696474683d273130302527206865696768743d2731303025272066696c6c3d27626c61636b27202f3e3c7465787420783d273530252720793d273530252720636c6173733d27626173652720646f6d696e616e742d626173656c696e653d276d6964646c652720746578742d616e63686f723d276d6964646c65273e54686973206c696e652073686f756c64206265207072696e746564207768656e2074686520636f6e7472616374206973206465706c6f796564",
  "linkReferences": {},
  "deployedLinkReferences": {}
}